:100000001DC037C050C135C034C033C032C031C04C
:1000100030C02FC02EC02DC02CC02BC02AC029C07C
:100020002FC227C026C01FC324C023C0B2C121C015
:1000300088C11FC01EC01DC01CC01BC011241FBE14
:10004000CFEFD2E0DEBFCDBF11E0A0E0B1E0E0E253
:10005000F2E102C005900D92A230B107D9F721E07C
:10006000A2E0B1E001C01D92A532B207E1F75AD378
:10007000D5C8C6CFCF93DF93CDB7DEB787E390E087
:1000800027E330E0F90120812C7FFC01208385E209
:1000900090E025E230E0F90120812668FC01208310
:1000A00089E290E0FC01108289E290E02BE0FC0103
:1000B000208385E290E025E230E0F9012081206490
:1000C000FC0120830000DF91CF910895CF93DF934F
:1000D000CDB7DEB7000085E290E0FC018081882F7B
:1000E00090E080719927892BB1F386E290E0FC01C2
:1000F00080819181DF91CF910895CF93DF9300D0DC
:1001000000D000D0CDB7DEB780E090E0A0EABBE33E
:1001100089839A83AB83BC83D9DF092E000CAA0B99
:10012000BB0BBC01CD01F8D6DC01CB0129813A81A2
:100130004B815C81BC01CD01A3D7DC01CB0120E068
:1001400030E048EC52E4BC01CD019AD7DC01CB0190
:10015000BC01CD01AED6DC01CB019E838D8386E24E
:1001600090E0FC01118210828D819E8126960FB64F
:10017000F894DEBF0FBECDBFDF91CF910895CF932E
:10018000DF9300D000D0CDB7DEB7B7DF9093030187
:100190008093020180910401909105012091020158
:1001A00030910301B901D7D7CC01A0E0B0E0BC0188
:1001B000CD01B0D6DC01CB0189839A83AB83BC83AC
:1001C00020E030E44CE156E469817A818B819C81A6
:1001D00008D6DC01CB0189839A83AB83BC8389E297
:1001E00090E029E230E0F901308121E02327FC0191
:1001F00020838091020190910301909305018093E7
:10020000040121E230EB4AE250E469817A818B817A
:100210009C8136D7DC01CB01BC01CD010F900F9042
:100220000F900F90DF91CF910895CF93DF93CDB7CB
:10023000DEB789E390E0FC018081882F90E0817037
:100240009927892B99F086E690E026E630E0F901BF
:1002500020812061FC01208386E690E026E630E0E4
:10026000F90120812B7FFC01208312C086E690E0FB
:1002700026E630E0F90120812460FC01208386E637
:1002800090E026E630E0F90120812F7EFC012083FA
:1002900088E490E022E330E0FC0131832083000019
:1002A000DF91CF9108951F920F9200905F000F92FF
:1002B00011242F933F938F939F93EF93FF93CF93AB
:1002C000DF93CDB7DEB789E390E0FC018081882F12
:1002D00090E081709927892B99F086E690E026E6D8
:1002E00030E0F90120812061FC01208386E690E066
:1002F00026E630E0F90120812B7FFC01208312C02B
:1003000086E690E026E630E0F90120812460FC01D9
:10031000208386E690E026E630E0F90120812F7EFA
:10032000FC0120830000DF91CF91FF91EF919F911D
:100330008F913F912F910F9000925F000F901F902F
:1003400018951F920F9200905F000F9211242F9327
:100350003F938F939F93EF93FF93CF93DF93CDB70B
:10036000DEB785E890E025E830E0F90120812061E2
:10037000FC0120830000DF91CF91FF91EF919F91CD
:100380008F913F912F910F9000925F000F901F90DF
:1003900018951F920F9200905F000F9211242F93D7
:1003A0003F934F935F936F937F938F939F93AF93FD
:1003B000BF93EF93FF93CF93DF93CDB7DEB78091D9
:1003C00006019091070120E830E0F90120818E5D5F
:1003D0009E4FFC01208380910601909107010196B8
:1003E0009093070180930601809106019091070187
:1003F000879789F5109207011092060180912401D8
:10040000833351F0809108019091090184609093A9
:100410000901809308011FC0209139019091380192
:1004200080913701422F692FFCD390930101809373
:100430000001809108019091090188609093090161
:100440008093080180910801909109018F7D90931C
:100450000901809308010000DF91CF91FF91EF9196
:10046000BF91AF919F918F917F916F915F914F91CC
:100470003F912F910F9000925F000F901F90189561
:100480001F920F9200905F000F9211242F933F93C1
:100490004F935F936F937F938F939F93AF93BF938C
:1004A000EF93FF93CF93DF9300D0CDB7DEB786E312
:1004B00090E0FC018081882F90E084709927892B3F
:1004C000E1F0109215011092140180EC90E0FC0113
:1004D00080819181909311018093100110921301FA
:1004E0001092120189EC90E029EC30E0F9013081A2
:1004F00020E42327FC0120839FC080911601909166
:1005000017010196909317018093160180EC90E0FB
:10051000FC0180819181909313018093120180915D
:10052000140190911501CC01A0E0B0E0AC0133279B
:1005300022278091100190911101CC01A0E0B0E040
:10054000281B390B4A0B5B0B809112019091130110
:10055000CC01A0E0B0E0280F391F4A1F5B1F88E3E1
:100560009CE9ACE1B0E0BC01CD011AD6DA01C901C9
:100570009A83898380911601909117010C976CF4EE
:1005800020910C0130910D0189819A81820F931F76
:1005900090930D0180930C013FC080910C019091CC
:1005A0000D012BE030E0B901E7D5CB0190930B01B1
:1005B00080930A01209100013091010180910A018C
:1005C00090910B01A901481B590BCA0190930F018F
:1005D00080930E0180910E0190910F018F30914018
:1005E00054F080910801909109018F7D9093090149
:1005F0008093080109C080910801909109018062EF
:10060000909309018093080110921701109216012E
:1006100010920D0110920C01109211011092100114
:100620001A82198289EC90E029EC30E0F9013081DE
:1006300020E42327FC01208300000F900F90DF911E
:10064000CF91FF91EF91BF91AF919F918F917F914A
:100650006F915F914F913F912F910F9000925F00AA
:100660000F901F9018951F920F9200905F000F92AD
:1006700011248F939F93CF93DF93CDB7DEB78091F3
:100680001401909115010196909315018093140126
:10069000809108019091090188709927892B41F474
:1006A000809108019091090180729927892B49F066
:1006B00080911C0190911D01019690931D018093E2
:1006C0001C0180911C0190911D010B97B4F0809149
:1006D00008019091090180619093090180930801BC
:1006E00010921D0110921C01809108019091090146
:1006F000877F909309018093080180911401909164
:100700001501029720F010920B0110920A010000CF
:10071000DF91CF919F918F910F9000925F000F908A
:100720001F901895EF92FF920F931F93CF93DF9333
:1007300000D000D000D0CDB7DEB78AE390E02AE346
:1007400030E0F9012081286AFC0120838AE390E0EF
:100750002AE330E0F90120812E7FFC01208387E32A
:1007600090E027E330E0F90120812C7FFC01208319
:1007700083E690E021E0FC012083F89482E390E09E
:1007800022E330E0F90120812160FC0120838BE528
:1007900090E02BE530E0F90120812061FC0120830D
:1007A000A2D103D267DC789419821A821B821C8240
:1007B0001E821D8285E290E025E230E0F901208171
:1007C0002061FC01208385E290E025E230E0F90120
:1007D00020812064FC01208380911E0190911F01E3
:1007E000A0912001B0912101BC01CD0162D3DC01B7
:1007F000CB019C0180910E0190910F01B9019DD018
:1008000080910E0190910F01092E000CAA0BBB0BD9
:10081000BC01CD0181D3DC01CB012CEA35EC47E2F0
:1008200059E3BC01CD012CD4DC01CB017C018D014D
:1008300080911E0190911F01A0912001B091210192
:100840009C01AD01C801B70164D2DC01CB018093EA
:100850001E0190931F01A0932001B093210180916C
:100860001E0190911F01A0912001B091210120E073
:1008700030E040E85FEBBC01CD01AFD2882344F407
:1008800010921E0110921F0110922001109221015E
:1008900080910A0190910B01892B39F4809100011C
:1008A00090910101892B09F0C0DC809108019091A1
:1008B000090180719927892B59F088E78ED18091A1
:1008C0000801909109018F7E90930901809308019E
:1008D0008D819E8184369105B4F451DCDC01CB011D
:1008E0009C01AD0169817A818B819C8112D2DC01EE
:1008F000CB0189839A83AB83BC838D819E810196D2
:100900009E838D8357CF20E030E046EC52E469812E
:100910007A818B819C8165D2DC01CB0180931801A7
:1009200090931901A0931A01B0931B011E821D829E
:1009300019821A821B821C823DCFCF93DF93CDB7E1
:10094000DEB76C970FB6F894DEBF0FBECDBF9A8F9F
:10095000898F7C8F6B8F898D9A8D092E000CAA0B45
:10096000BB0BBC01CD01D8D2DC01CB012CEE31E5B3
:1009700048E35DE3BC01CD0183D3DC01CB018B8374
:100980009C83AD83BE838B8D9C8D092E000CAA0B9E
:10099000BB0BBC01CD01C0D2DC01CB018F8398879A
:1009A000A987BA872F81388549855A856B817C81D3
:1009B0008D819E81AED1DC01CB01BC01CD0179D20C
:1009C000DC01CB019A83898389819A818C309140A3
:1009D0002CF08BE091E09A83898308C089819A8109
:1009E0000A9724F489E090E09A83898380E090E07C
:1009F000A8ECB1E48B879C87AD87BE8720E030E010
:100A00004AE753E46B857C858D859E8539D3DC016F
:100A1000CB018F87988BA98BBA8B20E030E040E820
:100A20005FE36F85788989899A89D7D188232CF4E7
:100A300081E090E09C8B8B8B3BC020E03FEF4FE749
:100A400057E46F85788989899A8916D318163CF5F9
:100A500020E030E040E251E46B857C858D859E8509
:100A60000FD3DC01CB01BC01CD0128D2DC01CB01CD
:100A70009C8B8B8B0FC089E190E09E8B8D8B8D8939
:100A80009E890197F1F79E8B8D8B8B899C890197AD
:100A90009C8B8B8B8B899C89892B69F713C06F8505
:100AA000788989899A890AD2DC01CB019C8B8B8B4E
:100AB0008B899C89988F8F8B8F89988D0197F1F7FF
:100AC000988F8F8B88E490E029813A81FC013183F3
:100AD000208300006C960FB6F894DEBF0FBECDBF2A
:100AE000DF91CF910895CF93DF93CDB7DEB78EE43A
:100AF00090E02EE430E0F90120812965FC0120839B
:100B00008FE490E02FE430E0F90120812362FC01C2
:100B1000208388E690E028E630E0F901208121601A
:100B2000FC01208387E690E027E630E0F901208190
:100B30002061FC01208386E690E026E630E0F901A2
:100B400020812061FC01208381E390E021E330E0FB
:100B5000F90120812162FC01208389EC90E029ECDD
:100B600030E0F90120812364FC0120838AEC90E0CD
:100B70002AEC30E0F90120812062FC01208382E52B
:100B800090E0FC0110828AE490E02AE031E0FC0170
:100B90003183208388E490E024E630E0FC01318357
:100BA00020830000DF91CF910895CF93DF93CDB7DD
:100BB000DEB781E890E023E330E0FC01318320835D
:100BC00085E890E025E830E0F9012081286DFC01FE
:100BD00020830000DF91CF910895CF93DF931F9280
:100BE000CDB7DEB7898385E890E025E830E0F901EC
:100BF00020812F7EFC012083000086E890E0FC012C
:100C00008081882F90E080729927892BB1F380E84A
:100C100090E02981FC01208300000F90DF91CF91AB
:100C20000895CF93DF9300D000D01F92CDB7DEB7E9
:100C30008B836C834D838B81882F90E09C012053A4
:100C40003109C901880F991F82959295907F982745
:100C5000807F9827821B930B880F991F880F991FFD
:100C6000820F931F880F991F880F991F880F991F54
:100C7000BC018C81882F90E09C0120533109C9016F
:100C8000880F991F820F931FAC01440F551F429587
:100C90005295507F5427407F5427840F951F820F11
:100CA000931FAB01480F591F8D81882F90E09C0145
:100CB00020533109C901880F991F880F991F820F8E
:100CC000931F880F991F840F951F9A8389838981A9
:100CD0009A818C32914054F489819A81892B19F43C
:100CE00080E090E00DC08CE291E00AC089819A8199
:100CF0008D389A401CF08CE89AE002C089819A8174
:100D00000F900F900F900F900F90DF91CF9108955B
:100D10005058BB27AA270ED075C166D130F06BD1D1
:100D200020F031F49F3F11F41EF45BC10EF4E09506
:100D3000E7FB51C1E92F77D180F3BA176207730738
:100D40008407950718F071F49EF58FC10EF4E095B5
:100D50000B2EBA2FA02D0B01B90190010C01CA0175
:100D6000A0011124FF27591B99F0593F50F4503E20
:100D700068F11A16F040A22F232F342F4427585F12
:100D8000F3CF469537952795A795F0405395C9F72A
:100D90007EF41F16BA0B620B730B840BBAF09150E2
:100DA000A1F0FF0FBB1F661F771F881FC2F70EC081
:100DB000BA0F621F731F841F48F487957795679554
:100DC000B795F7959E3F08F0B3CF9395880F08F03D
:100DD0009927EE0F979587950895D9D008F481E06B
:100DE00008950CD00FC107D140F0FED030F021F4AF
:100DF0005F3F19F0F0C0511139C1F3C014D198F31D
:100E00009923C9F35523B1F3951B550BBB27AA278B
:100E100062177307840738F09F5F5F4F220F331FFD
:100E2000441FAA1FA9F333D00E2E3AF0E0E830D0C9
:100E300091505040E695001CCAF729D0FE2F27D0CC
:100E4000660F771F881FBB1F261737074807AB079A
:100E5000B0E809F0BB0B802DBF01FF2793585F4F0F
:100E60002AF09E3F510568F0B6C000C15F3FECF329
:100E7000983EDCF3869577956795B795F7959F5FD4
:100E8000C9F7880F911D9695879597F90895E1E028
:100E9000660F771F881FBB1F621773078407BA0787
:100EA00020F0621B730B840BBA0BEE1F88F7E095E2
:100EB000089504D06894B111D9C00895BCD088F0C9
:100EC0009F5790F0B92F9927B751A0F0D1F0660F36
:100ED000771F881F991F1AF0BA95C9F712C0B13051
:100EE00081F0C3D0B1E00895C0C0672F782F882764
:100EF000B85F39F0B93FCCF3869577956795B39590
:100F0000D9F73EF490958095709561957F4F8F4FFE
:100F10009F4F0895E89409C097FB3EF49095809503
:100F2000709561957F4F8F4F9F4F9923A9F0F92FAF
:100F300096E9BB279395F695879577956795B7952D
:100F4000F111F8CFFAF4BB0F11F460FF1BC06F5F13
:100F50007F4F8F4F9F4F16C0882311F096E911C025
:100F6000772321F09EE8872F762F05C0662371F046
:100F700096E8862F70E060E02AF09A95660F771F5A
:100F8000881FDAF7880F9695879597F90895990F36
:100F90000008550FAA0BE0E8FEEF16161706E80743
:100FA000F907C0F012161306E407F50798F0621B64
:100FB000730B840B950B39F40A2661F0232B242B39
:100FC000252B21F408950A2609F4A140A6958FEF58
:100FD000811D811D089597F99F6780E870E060E0AA
:100FE00008959FEF80EC089500240A9416161706C2
:100FF00018060906089500240A941216130614060A
:1010000005060895092E0394000C11F4882352F06C
:10101000BB0F40F4BF2B11F460FF04C06F5F7F4F24
:101020008F4F9F4F089557FD9058440F551F59F00B
:101030005F3F71F04795880F97FB991F61F09F3FC5
:1010400079F087950895121613061406551FF2CFEE
:101050004695F1DF08C0161617061806991FF1CF3E
:1010600086957105610508940895E894BB27662765
:101070007727CB0197F908958ADF08F48FEF089559
:101080000AD0C0CFB1DF28F0B6DF18F0952309F001
:10109000A2CFA7CFEBCFC7DFA8F39923D9F355236E
:1010A000C9F3950F50E0551FAA27EE27FF27BB274E
:1010B00000240894679520F4E20FF31FB41F0A1E62
:1010C000220F331F441FAA1F6695A9F7779530F4A6
:1010D000F30FB41F0A1E121E08F46395330F441F4A
:1010E000AA1F221F769599F7879520F4B40F0A1E40
:1010F000121E631F440FAA1F221F331F8695A9F7D4
:10110000862F712D602D11249F5750408AF0E1F0F9
:1011100088234AF0EE0FFF1FBB1F661F771F881F33
:1011200091505040A9F79E3F510570F054CF9ECF8B
:101130005F3FECF3983EDCF3869577956795B7951E
:10114000F795E7959F5FC1F7FE2B880F911D969548
:10115000879597F908950024552704C0080E591F54
:10116000880F991F009729F076956795B8F3710558
:10117000B9F7802D952F0895AA1BBB1B51E107C01D
:10118000AA1FBB1FA617B70710F0A61BB70B881F17
:10119000991F5A95A9F780959095BC01CD010895A6
:1011A000052E97FB16F400940FD057FD05D014D0F0
:1011B00007FC02D046F408C0509540953095219523
:1011C0003F4F4F4F5F4F0895909580957095619573
:1011D0007F4F8F4F9F4F0895A1E21A2EAA1BBB1B72
:1011E000FD010DC0AA1FBB1FEE1FFF1FA217B307F3
:1011F000E407F50720F0A21BB30BE40BF50B661F09
:10120000771F881F991F1A9469F7609570958095CC
:1012100090959B01AC01BD01CF010895F894FFCFDB
:021220008C0A36
:00000001FF
