S01200003331315F53616D706C652E73726563BC
S11300001DC037C037C035C034C033C032C031C062
S113001030C02FC02EC02DC02CC02BC02AC029C078
S113002005C127C026C0D9C124C023C099C021C09E
S11300306FC01FC01EC01DC01CC01BC011241FBE2A
S1130040CFEFD2E0DEBFCDBF11E0A0E0B1E0ECEB3A
S1130050FCE002C005900D92A230B107D9F721E06F
S1130060A2E0B1E001C01D92AB31B207E1F7DFD1EC
S113007023C6C6CF1F920F9200905F000F921124E7
S11300802F933F938F939F93EF93FF93CF93DF939C
S1130090CDB7DEB789E390E0FC018081882F90E042
S11300A081709927892B99F086E690E026E630E066
S11300B0F90120812061FC01208386E690E026E698
S11300C030E0F90120812B7FFC01208312C086E6F9
S11300D090E026E630E0F90120812460FC012083D1
S11300E086E690E026E630E0F90120812F7EFC01CF
S11300F020830000DF91CF91FF91EF919F918F9129
S11301003F912F910F9000925F000F901F901895D0
S11301101F920F9200905F000F9211242F933F9330
S11301208F939F93EF93FF93CF93DF93CDB7DEB776
S113013085E890E025E830E0F90120812061FC01A8
S113014020830000DF91CF91FF91EF919F918F91D8
S11301503F912F910F9000925F000F901F90189580
S11301601F920F9200905F000F9211242F933F93E0
S11301704F935F936F937F938F939F93AF93BF93AB
S1130180EF93FF93CF93DF93CDB7DEB78091020156
S11301909091030120E830E0F9012081885E9E4FB0
S11301A0FC012083809102019091030101969093B8
S11301B003018093020180910201909103018797CA
S11301C001F5109203011092020180911A01833308
S11301D059F0809104019091050184609093050188
S11301E080930401DDD20DC020912F0190912E0146
S11301F080912D01422F692FDBD2909301018093CE
S113020000010000DF91CF91FF91EF91BF91AF9179
S11302109F918F917F916F915F914F913F912F911A
S11302200F9000925F000F901F9018951F920F92ED
S113023000905F000F9211242F933F934F935F938D
S11302406F937F938F939F93AF93BF93EF93FF939A
S1130250CF93DF9300D0CDB7DEB786E390E0FC0107
S11302608081882F90E084709927892BE1F0109287
S113027011011092100180EC90E0FC0180819181C9
S113028090930D0180930C0110920F0110920E01B6
S113029089EC90E029EC30E0F901308120E4232757
S11302A0FC01208383C08091120190911301019677
S11302B0909313018093120180EC90E0FC01808103
S11302C0918190930F0180930E0180911001909180
S11302D01101CC01A0E0B0E0AC01332722278091CA
S11302E00C0190910D01CC01A0E0B0E0281B390B6A
S11302F04A0B5B0B80910E0190910F01CC01A0E0A1
S1130300B0E0280F391F4A1F5B1F88E39CE9ACE16A
S1130310B0E0BC01CD0192D4DA01C9019A8389838A
S113032080911201909113010C976CF420910801B3
S11303303091090189819A81820F931F9093090159
S11303408093080123C080910801909109012BE05A
S113035030E0B9015FD4CB0190930701809306018B
S1130360809106019091070128EE33E0A901481B12
S1130370590BCA0190930B0180930A011092130147
S113038010921201109209011092080110920D01AD
S113039010920C011A82198289EC90E029EC30E069
S11303A0F901308120E42327FC01208300000F9011
S11303B00F90DF91CF91FF91EF91BF91AF919F91FA
S11303C08F917F916F915F914F913F912F910F90FA
S11303D000925F000F901F9018951F920F9200904B
S11303E05F000F9211248F939F93CF93DF93CDB728
S11303F0DEB7809110019091110101969093110143
S1130400809310018091100190911101029720F0C6
S113041010920701109206010000DF91CF919F9185
S11304208F910F9000925F000F901F901895EF929C
S1130430FF920F931F93CF93DF93CDB7DEB78AE379
S113044090E02AE330E0F9012081286AFC0120834E
S11304508AE390E02AE330E0F90120812E7FFC0159
S1130460208387E390E027E330E0F90120812C7FAB
S1130470FC01208383E690E021E0FC012083F894D2
S113048082E390E022E330E0F90120812160FC0165
S113049020838BE590E02BE530E0F9012081206199
S11304A0FC0120831BD17894809114019091150153
S11304B0A0911601B0911701BC01CD0159D2DC0104
S11304C0CB019C0180910A0190910B01B90130D0BC
S11304D080910A0190910B01092E000CAA0BBB0B11
S11304E0BC01CD0178D2DC01CB0122E539E44DE138
S11304F059E3BC01CD0123D3DC01CB017C018D0187
S11305008091140190911501A0911601B0911701E9
S11305109C01AD01C801B701C3D1DC01CB018093BB
S1130520140190931501A0931601B0931701BCCF49
S1130530CF93DF93CDB7DEB76C970FB6F894DEBFD9
S11305400FBECDBF9A8F898F7C8F6B8F898D9A8DCB
S1130550092E000CAA0BBB0BBC01CD013CD2DC0163
S1130560CB012CEE31E548E35DE3BC01CD01E7D2DC
S1130570DC01CB018B839C83AD83BE838B8D9C8DEF
S1130580092E000CAA0BBB0BBC01CD0124D2DC014B
S1130590CB018F839887A987BA872F8138854985AE
S11305A05A856B817C818D819E817AD1DC01CB015E
S11305B0BC01CD01DDD1DC01CB019A838983898122
S11305C09A818C3091402CF08BE091E09A8389835E
S11305D008C089819A81992324F489E090E09A8360
S11305E0898380E090E0A8ECB1E48B879C87AD8799
S11305F0BE8720E030E04AE753E46B857C858D8537
S11306009E859DD2DC01CB018F87988BA98BBA8BF9
S113061020E030E040E85FE36F85788989899A8932
S1130620A3D188232CF481E090E09C8B8B8B3BC07E
S113063020E03FEF4FE757E46F85788989899A89ED
S11306407AD218163CF520E030E040E251E46B85A4
S11306507C858D859E8573D2DC01CB01BC01CD01E7
S11306608CD1DC01CB019C8B8B8B0FC089E190E09A
S11306709E8B8D8B8D899E890197F1F79E8B8D8B37
S11306808B899C8901979C8B8B8B8B899C89892B6B
S113069069F713C06F85788989899A896ED1DC01DD
S11306A0CB019C8B8B8B8B899C89988F8F8B8F89AB
S11306B0988D0197F1F7988F8F8B88E490E02981CA
S11306C03A81FC013183208300006C960FB6F894C4
S11306D0DEBF0FBECDBFDF91CF910895CF93DF93DF
S11306E0CDB7DEB78EE490E02EE430E0F90120814E
S11306F02965FC0120838FE490E02FE430E0F901C8
S113070020812362FC01208388E690E028E630E023
S1130710F90120812160FC01208387E690E027E62F
S113072030E0F90120812061FC01208386E690E01D
S113073026E630E0F90120812061FC01208381E379
S113074090E021E330E0F90120812162FC01208363
S113075089EC90E029EC30E0F90120812364FC016C
S113076020838AEC90E02AEC30E0F90120812062B9
S1130770FC01208382E590E0FC0110828AE490E091
S11307802AE031E0FC013183208388E490E028EC06
S113079030E0FC01318320830000DF91CF91089584
S11307A0CF93DF93CDB7DEB70000DF91CF910895EB
S11307B0CF93DF9300D000D01F92CDB7DEB78B83E9
S11307C06C834D838B81882F90E09C0120533109E9
S11307D0C901880F991F82959295907F9827807FF1
S11307E09827821B930B880F991F880F991F820FDC
S11307F0931F880F991F880F991F880F991FBC0199
S11308008C81882F90E09C0120533109C901880F05
S1130810991F820F931FAC01440F551F42955295A7
S1130820507F5427407F5427840F951F820F931FB6
S1130830AB01480F591F8D81882F90E09C012053F4
S11308403109C901880F991F880F991F820F931FBF
S1130850880F991F840F951F9A83898389819A81B0
S11308608C32914054F489819A81892B19F480E067
S113087090E00DC08CE291E00AC089819A818D38A4
S11308809A401CF08CE89AE002C089819A810F900A
S11308900F900F900F900F90DF91CF9108955058C3
S11308A0BB27AA270ED00DC1FED030F003D120F013
S11308B031F49F3F11F41EF4F3C00EF4E095E7FB0E
S11308C0E9C0E92F0FD180F3BA17620773078407D1
S11308D0950718F071F49EF527C10EF4E0950B2EE0
S11308E0BA2FA02D0B01B90190010C01CA01A0017E
S11308F01124FF27591B99F0593F50F4503E68F1D9
S11309001A16F040A22F232F342F4427585FF3CF19
S1130910469537952795A795F0405395C9F77EF4EA
S11309201F16BA0B620B730B840BBAF09150A1F033
S1130930FF0FBB1F661F771F881FC2F70EC0BA0FB9
S1130940621F731F841F48F4879577956795B79541
S1130950F7959E3F08F0B3CF9395880F08F0992739
S1130960EE0F97958795089571D008F481E0089566
S113097004D06894B111D9C00895BCD088F09F57B1
S113098090F0B92F9927B751A0F0D1F0660F771FD7
S1130990881F991F1AF0BA95C9F712C0B13081F0B7
S11309A0C3D0B1E00895C0C0672F782F8827B85FFF
S11309B039F0B93FCCF3869577956795B395D9F718
S11309C03EF490958095709561957F4F8F4F9F4F22
S11309D00895E89409C097FB3EF49095809570952E
S11309E061957F4F8F4F9F4F9923A9F0F92F96E977
S11309F0BB279395F695879577956795B795F111EC
S1130A00F8CFFAF4BB0F11F460FF1BC06F5F7F4F88
S1130A108F4F9F4F16C0882311F096E911C077239A
S1130A2021F09EE8872F762F05C0662371F096E8A3
S1130A30862F70E060E02AF09A95660F771F881F72
S1130A40DAF7880F9695879597F90895990F000816
S1130A50550FAA0BE0E8FEEF16161706E807F9078C
S1130A60C0F012161306E407F50798F0621B730B27
S1130A70840B950B39F40A2661F0232B242B252BA8
S1130A8021F408950A2609F4A140A6958FEF811D4B
S1130A90811D089597F99F6780E870E060E00895EC
S1130AA09FEF80EC089500240A9416161706180682
S1130AB00906089500240A9412161306140605065E
S1130AC00895092E0394000C11F4882352F0BB0FEF
S1130AD040F4BF2B11F460FF04C06F5F7F4F8F4F52
S1130AE09F4F089557FD9058440F551F59F05F3F8D
S1130AF071F04795880F97FB991F61F09F3F79F03C
S1130B0087950895121613061406551FF2CF4695BD
S1130B10F1DF08C0161617061806991FF1CF86953F
S1130B207105610508940895E894BB276627772723
S1130B30CB0197F908958ADF08F48FEF08950AD05E
S1130B40C0CFB1DF28F0B6DF18F0952309F0A2CFAB
S1130B50A7CFEBCFC7DFA8F39923D9F35523C9F364
S1130B60950F50E0551FAA27EE27FF27BB27002427
S1130B700894679520F4E20FF31FB41F0A1E220F96
S1130B80331F441FAA1F6695A9F7779530F4F30F16
S1130B90B41F0A1E121E08F46395330F441FAA1FC4
S1130BA0221F769599F7879520F4B40F0A1E121E1A
S1130BB0631F440FAA1F221F331F8695A9F7862F90
S1130BC0712D602D11249F5750408AF0E1F0882345
S1130BD04AF0EE0FFF1FBB1F661F771F881F91503F
S1130BE05040A9F79E3F510570F054CF9ECF5F3F10
S1130BF0ECF3983EDCF3869577956795B795F79572
S1130C00E7959F5FC1F7FE2B880F911D96958795F9
S1130C1097F90895AA1BBB1B51E107C0AA1FBB1F6C
S1130C20A617B70710F0A61BB70B881F991F5A9574
S1130C30A9F780959095BC01CD010895052E97FBE9
S1130C4016F400940FD057FD05D014D007FC02D041
S1130C5046F408C050954095309521953F4F4F4F2D
S1130C605F4F089590958095709561957F4F8F4F54
S1130C709F4F0895A1E21A2EAA1BBB1BFD010DC0B4
S1130C80AA1FBB1FEE1FFF1FA217B307E407F50738
S1130C9020F0A21BB30BE40BF50B661F771F881F14
S1130CA0991F1A9469F760957095809590959B01AA
S10F0CB0AC01BD01CF010895F894FFCF02
S1050CBCDC0551
S9030000FC
