S01200003331315F53616D706C652E73726563BC
S11300001DC037C079C035C034C033C032C031C020
S113001030C02FC02EC02DC02CC0BBC02AC029C0E8
S11300200DC227C026C0E8C224C023C0A2C121C07B
S113003079C11FC01EC01DC01CC01BC011241FBE1F
S1130040CFEFD2E0DEBFCDBF11E0A0E0B1E0ECED38
S1130050F0E102C005900D92A430B107D9F721E078
S1130060A4E0B1E001C01D92AC32B207E1F7EDD2D9
S113007033C8C6CFCF93DF93CDB7DEB728970FB67B
S1130080F894DEBF0FBECDBF98878F8380E090E0E9
S1130090A0EABBE389839A83AB83BC838F81988571
S11300A0CC01A0E0B0E0BC01CD0192D6DC01CB01D3
S11300B029813A814B815C81BC01CD013FD7DC01B0
S11300C0CB0120E030E048EC52E4BC01CD0136D74E
S11300D0DC01CB01BC01CD014AD6DC01CB019E83FE
S11300E08D838D819E8128960FB6F894DEBF0FBE56
S11300F0CDBFDF91CF9108951F920F9200905F00C2
S11301000F9211242F933F938F939F93EF93FF9319
S1130110CF93DF93CDB7DEB789E390E0FC01808114
S1130120882F90E081709927892B99F086E690E0DA
S113013026E630E0F90120812061FC01208386E677
S113014090E026E630E0F90120812B7FFC0120833A
S113015012C086E690E026E630E0F90120812460B2
S1130160FC01208386E690E026E630E0F901208158
S11301702F7EFC012083DF91CF91FF91EF919F911E
S11301808F913F912F910F9000925F000F901F90DD
S113019018951F920F9200905F000F9211242F93D5
S11301A03F934F935F936F937F938F939F93AF93FB
S11301B0BF93EF93FF93CF93DF9300D000D0CDB7DD
S11301C0DEB78091120190911301843691050CF0F1
S11301D064C086E290E0FC01808191814BDF9093C2
S11301E017018093160180911801909119012091B3
S11301F0160130911701B9010CD7CC01A0E0B0E091
S1130200BC01CD01E5D5DC01CB0189839A83AB83A5
S1130210BC8320E030E44CE156E469817A818B812F
S11302209C813DD5DC01CB0189839A83AB83BC835C
S113023080911A0190911B01A0911C01B0911D01A4
S113024029813A814B815C81BC01CD01C0D4DC01A0
S1130250CB0180931A0190931B01A0931C01B093CE
S11302601D01809112019091130101969093130145
S11302708093120189E290E029E230E0F9013081B3
S113028021E02327FC01208380911601909117011E
S113029090931901809318012DC080911A019091B7
S11302A01B01A0911C01B0911D0120E030E046EC3F
S11302B052E4BC01CD01F3D4DC01CB0180931E01D7
S11302C090931F01A0932001B09321011092190172
S11302D01092180110921701109216011092130136
S11302E01092120110921A0110921B0110921C011B
S11302F010921D010F900F900F900F90DF91CF91EE
S1130300FF91EF91BF91AF919F918F917F916F91E9
S11303105F914F913F912F910F9000925F000F904A
S11303201F9018951F920F9200905F000F92112456
S11303302F933F938F939F93EF93FF93CF93DF93E9
S1130340CDB7DEB785E890E025E830E0F9012081FB
S11303502061FC012083DF91CF91FF91EF919F9168
S11303608F913F912F910F9000925F000F901F90FB
S113037018951F920F9200905F000F9211242F93F3
S11303803F934F935F936F937F938F939F93AF9319
S1130390BF93EF93FF93CF93DF93CDB7DEB78091F5
S11303A004019091050120E830E0F9012081885D85
S11303B09E4FFC01208380910401909105010196D8
S11303C090930501809304018091040190910501AB
S11303D0879701F5109205011092040180912A017A
S11303E0833359F0809106019091070184609093C2
S11303F00701809306016CD30DC020913F019091B9
S11304003E0180913D01422F692F69D390930101F0
S113041080930001DF91CF91FF91EF91BF91AF9154
S11304209F918F917F916F915F914F913F912F9108
S11304300F9000925F000F901F9018951F920F92DB
S113044000905F000F9211242F933F934F935F937B
S11304506F937F938F939F93AF93BF93EF93FF9388
S1130460CF93DF93CDB7DEB72897DEBFCDBF86E34A
S113047090E0FC018081882F90E084709927892B7B
S1130480E1F0109211011092100180EC90E0FC0157
S11304908081918190930D0180930C0110920F0142
S11304A010920E0189EC90E029EC30E0F9013081E2
S11304B020E42327FC01208385C0809114019091BE
S11304C015010196909315018093140180EC90E03E
S11304D0FC018081918190930F0180930E018091A2
S11304E0100190911101CC01A0E0B0E0AC013327E0
S11304F0222780910C0190910D01CC01A0E0B0E085
S1130500281B390B4A0B5B0B80910E0190910F0154
S1130510CC01A0E0B0E0280F391F4A1F5B1F88E31D
S11305209CE9ACE1B0E0BC01CD0198D5DA01C90188
S11305309A83898380911401909115010C976CF42E
S113054020910A0130910B0189819A81820F931FB6
S113055090930B0180930A0125C080910A01909128
S11305600B012BE030E0B90165D5CB019093090173
S113057080930801209100013091010180910801CC
S113058090910901A901481B590BCA0190930301D9
S113059080930201109215011092140110920B0124
S11305A010920A0110920D0110920C011A82198204
S11305B089EC90E029EC30E0F901308120E4232734
S11305C0FC01208328960FB6F894DEBF0FBECDBF82
S11305D0DF91CF91FF91EF91BF91AF919F918F9157
S11305E07F916F915F914F913F912F910F90009266
S11305F05F000F901F9018951F920F9200905F005C
S11306000F9211248F939F93CF93DF93CDB7DEB7CF
S113061080911001909111010196909311018093A2
S113062010018091100190911101029720F0109215
S1130630090110920801DF91CF919F918F910F9042
S113064000925F000F901F901895EF92FF920F9306
S11306501F93CF93DF93CDB7DEB78AE390E02AE30D
S113066030E0F9012081286AFC0120838AE390E0CC
S11306702AE330E0F90120812E7FFC01208387E307
S113068090E027E330E0F90120812C7FFC012083F6
S113069083E690E021E0FC012083F89482E390E07B
S11306A022E330E0F90120812160FC0120838BE505
S11306B090E02BE530E0F90120812061FC012083EA
S11306C08FD1EFD178940091260110912701809168
S11306D0220190912301A0912401B0912501BC0134
S11306E0CD0145D3DC01CB019C01809102019091A5
S11306F00301A801B9017AD080910201909103010C
S1130700092E000CAA0BBB0BBC01CD0163D3DC0189
S1130710CB0122E539E44DE159E3BC01CD010ED40E
S1130720DC01CB017C018D01809122019091230198
S1130730A0912401B09125019C01AD01C801B7012C
S113074046D2DC01CB018093220190932301A09334
S11307502401B09325018091080190910901892B0E
S1130760E1F58091000190910101892BB1F189E3B8
S113077090E0FC018081882F90E081709927892B7B
S113078099F086E690E026E630E0F90120812061C8
S1130790FC01208386E690E026E630E0F901208122
S11307A02B7FFC01208312C086E690E026E630E031
S11307B0F90120812460FC01208386E690E026E68E
S11307C030E0F90120812F7EFC01208388E490E051
S11307D022E330E0FC013183208380910201909177
S11307E0030190932701809326016DCFCF93DF936C
S11307F0CDB7DEB7A2970FB6F894DEBF0FBECDBF5C
S11308009E8F8D8F78A36F8F5AA349A38D8D9E8D54
S1130810092E000CAA0BBB0BBC01CD01DBD2DC0101
S1130820CB012CEE31E548E35DE3BC01CD0186D379
S1130830DC01CB018B839C83AD83BE838F8D98A118
S1130840092E000CAA0BBB0BBC01CD01C3D2DC01E9
S1130850CB018F839887A987BA872D8D3E8D89A177
S11308609AA1281B390BC901880F991F880F991F5A
S1130870820F931F092E000CAA0BBB0BBC01CD01E8
S1130880A9D2DC01CB018B879C87AD87BE872F81E2
S1130890388549855A856B817C818D819E8197D16C
S11308A0DC01CB012B853C854D855E85BC01CD01EA
S11308B08ED1DC01CB01BC01CD0159D2DC01CB01CD
S11308C09A83898389819A818C3091402CF08BE0C2
S11308D091E09A83898308C089819A81992324F4B9
S11308E089E090E09A83898380E090E0A8ECB1E409
S11308F08F87988BA98BBA8B20E030E04AE753E4CA
S11309006F85788989899A8919D3DC01CB018B8B0E
S11309109C8BAD8BBE8B20E030E040E85FE36B89BD
S11309207C898D899E89B7D188232CF481E090E05D
S1130930988F8F8B3BC020E03FEF4FE757E46B89E4
S11309407C898D899E89F6D218163CF520E030E02A
S113095040E251E46F85788989899A89EFD2DC0174
S1130960CB01BC01CD0108D2DC01CB01988F8F8B68
S11309700FC089E190E09A8F898F898D9A8D0197B4
S1130980F1F79A8F898F8F89988D0197988F8F8B24
S11309908F89988D892B69F713C06B897C898D8920
S11309A09E89EAD1DC01CB01988F8F8B8F89988D3A
S11309B09C8F8B8F8B8D9C8D0197F1F79C8F8B8FE8
S11309C088E490E029813A81FC0131832083A29656
S11309D00FB6F894DEBF0FBECDBFDF91CF9108955F
S11309E0CF93DF93CDB7DEB78EE490E02EE430E012
S11309F0F90120812965FC0120838FE490E02FE434
S1130A0030E0F90120812362FC01208388E690E034
S1130A1028E630E0F90120812160FC01208387E68B
S1130A2090E027E630E0F90120812061FC01208379
S1130A3086E690E026E630E0F90120812061FC01A1
S1130A40208381E390E021E330E0F90120812162F9
S1130A50FC01208389EC90E029EC30E0F90120814D
S1130A602364FC0120838AEC90E02AEC30E0F90155
S1130A7020812062FC01208382E590E0FC01108249
S1130A808AE490E02AE031E0FC013183208388E4A9
S1130A9090E02BE031E0FC0131832083DF91CF91A2
S1130AA00895CF93DF93CDB7DEB781E890E023E3D9
S1130AB030E0FC013183208385E890E025E830E0D4
S1130AC0F9012081286DFC012083DF91CF910895E5
S1130AD0CF93DF93CDB7DEB7DF91CF910895CF9356
S1130AE0DF9300D000D01F92CDB7DEB78B836C8329
S1130AF04D838B81882F90E09C0120533109C901DB
S1130B00880F991F82959295907F9827807F9827C8
S1130B10821B930B880F991F880F991F820F931FB5
S1130B20880F991F880F991F880F991FBC018C810A
S1130B30882F90E09C0120533109C901880F991F27
S1130B40820F931FAC01440F551F42955295507F5D
S1130B505427407F5427840F951F820F931FAB01A6
S1130B60480F591F8D81882F90E09C012053310933
S1130B70C901880F991F880F991F820F931F880F2F
S1130B80991F840F951F9A83898389819A818C3256
S1130B90914054F489819A81892B19F480E090E082
S1130BA00DC08CE291E00AC089819A818D389A4007
S1130BB01CF08CE89AE002C089819A810F900F9012
S1130BC00F900F900F90DF91CF9108955058BB274D
S1130BD0AA270ED075C166D130F06BD120F031F464
S1130BE09F3F11F41EF45BC10EF4E095E7FB51C185
S1130BF0E92F77D180F3BA17620773078407950743
S1130C0018F071F49EF58FC10EF4E0950B2EBA2FF7
S1130C10A02D0B01B90190010C01CA01A0011124FE
S1130C20FF27591B99F0593F50F4503E68F11A16AA
S1130C30F040A22F232F342F4427585FF3CF46953B
S1130C4037952795A795F0405395C9F77EF41F165D
S1130C50BA0B620B730B840BBAF09150A1F0FF0F27
S1130C60BB1F661F771F881FC2F70EC0BA0F621F13
S1130C70731F841F48F4879577956795B795F79503
S1130C809E3F08F0B3CF9395880F08F09927EE0F95
S1130C90979587950895D9D008F481E008950CD0EC
S1130CA00FC107D140F0FED030F021F45F3F19F0BE
S1130CB0F0C0511139C1F3C014D198F39923C9F389
S1130CC05523B1F3951B550BBB27AA27621773074E
S1130CD0840738F09F5F5F4F220F331F441FAA1F02
S1130CE0A9F333D00E2E3AF0E0E830D091505040C2
S1130CF0E695001CCAF729D0FE2F27D0660F771F70
S1130D00881FBB1F261737074807AB07B0E809F051
S1130D10BB0B802DBF01FF2793585F4F2AF09E3FE6
S1130D20510568F0B6C000C15F3FECF3983EDCF3B8
S1130D30869577956795B795F7959F5FC9F7880F5F
S1130D40911D9695879597F90895E1E0660F771FB1
S1130D50881FBB1F621773078407BA0720F0621B42
S1130D60730B840BBA0BEE1F88F7E095089504D03B
S1130D706894B111D9C00895BCD088F09F5790F001
S1130D80B92F9927B751A0F0D1F0660F771F881FAC
S1130D90991F1AF0BA95C9F712C0B13081F0C3D0C7
S1130DA0B1E00895C0C0672F782F8827B85F39F065
S1130DB0B93FCCF3869577956795B395D9F73EF40B
S1130DC090958095709561957F4F8F4F9F4F0895B3
S1130DD0E89409C097FB3EF49095809570956195D1
S1130DE07F4F8F4F9F4F9923A9F0F92F96E9BB2787
S1130DF09395F695879577956795B795F111F8CF03
S1130E00FAF4BB0F11F460FF1BC06F5F7F4F8F4F6D
S1130E109F4F16C0882311F096E911C0772321F063
S1130E209EE8872F762F05C0662371F096E8862FFB
S1130E3070E060E02AF09A95660F771F881FDAF752
S1130E40880F9695879597F90895990F0008550F7F
S1130E50AA0BE0E8FEEF16161706E807F907C0F03C
S1130E6012161306E407F50798F0621B730B840B44
S1130E70950B39F40A2661F0232B242B252B21F41E
S1130E8008950A2609F4A140A6958FEF811D811DBE
S1130E90089597F99F6780E870E060E008959FEFF8
S1130EA080EC089500240A941616170618060906FD
S1130EB0089500240A9412161306140605060895CC
S1130EC0092E0394000C11F4882352F0BB0F40F454
S1130ED0BF2B11F460FF04C06F5F7F4F8F4F9F4F94
S1130EE0089557FD9058440F551F59F05F3F71F016
S1130EF04795880F97FB991F61F09F3F79F087957D
S1130F000895121613061406551FF2CF4695F1DF05
S1130F1008C0161617061806991FF1CF8695710595
S1130F20610508940895E894BB2766277727CB01C9
S1130F3097F908958ADF08F48FEF08950AD0C0CF97
S1130F40B1DF28F0B6DF18F0952309F0A2CFA7CFC0
S1130F50EBCFC7DFA8F39923D9F35523C9F3950F32
S1130F6050E0551FAA27EE27FF27BB27002408942B
S1130F70679520F4E20FF31FB41F0A1E220F331FDC
S1130F80441FAA1F6695A9F7779530F4F30FB41F91
S1130F900A1E121E08F46395330F441FAA1F221F52
S1130FA0769599F7879520F4B40F0A1E121E631FD5
S1130FB0440FAA1F221F331F8695A9F7862F712D70
S1130FC0602D11249F5750408AF0E1F088234AF0A5
S1130FD0EE0FFF1FBB1F661F771F881F91505040E5
S1130FE0A9F79E3F510570F054CF9ECF5F3FECF3BD
S1130FF0983EDCF3869577956795B795F795E795D1
S11310009F5FC1F7FE2B880F911D9695879597F9E1
S113101008950024552704C0080E591F880F991FEE
S1131020009729F076956795B8F37105B9F7802D87
S1131030952F0895AA1BBB1B51E107C0AA1FBB1F14
S1131040A617B70710F0A61BB70B881F991F5A9550
S1131050A9F780959095BC01CD010895052E97FBC5
S113106016F400940FD057FD05D014D007FC02D01D
S113107046F408C050954095309521953F4F4F4F09
S11310805F4F089590958095709561957F4F8F4F30
S11310909F4F0895A1E21A2EAA1BBB1BFD010DC090
S11310A0AA1FBB1FEE1FFF1FA217B307E407F50714
S11310B020F0A21BB30BE40BF50B661F771F881FF0
S11310C0991F1A9469F760957095809590959B0186
S10F10D0AC01BD01CF010895F894FFCFDE
S10710DCD007D0075E
S9030000FC
